{
  "_format": "hh-sol-artifact-1",
  "contractName": "VeryPoolTreasury",
  "sourceName": "contracts/VeryPoolTreasury.sol",
  "abi": [
    {
      "inputs": [],
      "name": "InvalidInitialization",
      "type": "error"
    },
    {
      "inputs": [],
      "name": "NotInitializing",
      "type": "error"
    },
    {
      "inputs": [
        {
          "internalType": "address",
          "name": "owner",
          "type": "address"
        }
      ],
      "name": "OwnableInvalidOwner",
      "type": "error"
    },
    {
      "inputs": [
        {
          "internalType": "address",
          "name": "account",
          "type": "address"
        }
      ],
      "name": "OwnableUnauthorizedAccount",
      "type": "error"
    },
    {
      "inputs": [],
      "name": "ReentrancyGuardReentrantCall",
      "type": "error"
    },
    {
      "anonymous": false,
      "inputs": [
        {
          "indexed": true,
          "internalType": "address",
          "name": "to",
          "type": "address"
        },
        {
          "indexed": false,
          "internalType": "uint256",
          "name": "amount",
          "type": "uint256"
        }
      ],
      "name": "ClaimedNative",
      "type": "event"
    },
    {
      "anonymous": false,
      "inputs": [
        {
          "indexed": false,
          "internalType": "uint64",
          "name": "version",
          "type": "uint64"
        }
      ],
      "name": "Initialized",
      "type": "event"
    },
    {
      "anonymous": false,
      "inputs": [
        {
          "indexed": true,
          "internalType": "address",
          "name": "previousOwner",
          "type": "address"
        },
        {
          "indexed": true,
          "internalType": "address",
          "name": "newOwner",
          "type": "address"
        }
      ],
      "name": "OwnershipTransferred",
      "type": "event"
    },
    {
      "stateMutability": "payable",
      "type": "fallback"
    },
    {
      "inputs": [
        {
          "internalType": "address",
          "name": "to",
          "type": "address"
        },
        {
          "internalType": "uint256",
          "name": "amount",
          "type": "uint256"
        }
      ],
      "name": "claimNative",
      "outputs": [],
      "stateMutability": "nonpayable",
      "type": "function"
    },
    {
      "inputs": [
        {
          "internalType": "address",
          "name": "initialOwner",
          "type": "address"
        }
      ],
      "name": "initialize",
      "outputs": [],
      "stateMutability": "nonpayable",
      "type": "function"
    },
    {
      "inputs": [],
      "name": "owner",
      "outputs": [
        {
          "internalType": "address",
          "name": "",
          "type": "address"
        }
      ],
      "stateMutability": "view",
      "type": "function"
    },
    {
      "inputs": [],
      "name": "renounceOwnership",
      "outputs": [],
      "stateMutability": "nonpayable",
      "type": "function"
    },
    {
      "inputs": [
        {
          "internalType": "address",
          "name": "newOwner",
          "type": "address"
        }
      ],
      "name": "transferOwnership",
      "outputs": [],
      "stateMutability": "nonpayable",
      "type": "function"
    },
    {
      "inputs": [],
      "name": "treasuryBalance",
      "outputs": [
        {
          "internalType": "uint256",
          "name": "",
          "type": "uint256"
        }
      ],
      "stateMutability": "view",
      "type": "function"
    },
    {
      "stateMutability": "payable",
      "type": "receive"
    }
  ],
  "bytecode": "0x608060405234801561001057600080fd5b50610e09806100206000396000f3fe6080604052600436106100595760003560e01c8063313dab201461009b578063715018a6146100c65780638da5cb5b146100dd578063a313714e14610108578063c4d66de814610131578063f2fde38b1461015a57610060565b3661006057005b6040517f08c379a0000000000000000000000000000000000000000000000000000000008152600401610092906109ef565b60405180910390fd5b3480156100a757600080fd5b506100b0610183565b6040516100bd9190610a28565b60405180910390f35b3480156100d257600080fd5b506100db61018b565b005b3480156100e957600080fd5b506100f261019f565b6040516100ff9190610a84565b60405180910390f35b34801561011457600080fd5b5061012f600480360381019061012a9190610afc565b6101d7565b005b34801561013d57600080fd5b5061015860048036038101906101539190610b3c565b6103e3565b005b34801561016657600080fd5b50610181600480360381019061017c9190610b3c565b61057a565b005b600047905090565b610193610600565b61019d6000610687565b565b6000806101aa61075e565b90508060000160009054906101000a900473ffffffffffffffffffffffffffffffffffffffff1691505090565b6101df610600565b6101e7610786565b600073ffffffffffffffffffffffffffffffffffffffff168273ffffffffffffffffffffffffffffffffffffffff1603610256576040517f08c379a000000000000000000000000000000000000000000000000000000000815260040161024d90610bb5565b60405180910390fd5b60008111610299576040517f08c379a000000000000000000000000000000000000000000000000000000000815260040161029090610c21565b60405180910390fd5b804710156102dc576040517f08c379a00000000000000000000000000000000000000000000000000000000081526004016102d390610c8d565b60405180910390fd5b60008273ffffffffffffffffffffffffffffffffffffffff168260405161030290610cde565b60006040518083038185875af1925050503d806000811461033f576040519150601f19603f3d011682016040523d82523d6000602084013e610344565b606091505b5050905080610388576040517f08c379a000000000000000000000000000000000000000000000000000000000815260040161037f90610d3f565b60405180910390fd5b8273ffffffffffffffffffffffffffffffffffffffff167face445f5c5f6b3f7c9e393cda8c8a765db6045a0452b391cc1b40bea43d4a9ca836040516103ce9190610a28565b60405180910390a2506103df6107dd565b5050565b60006103ed6107f6565b905060008160000160089054906101000a900460ff1615905060008260000160009054906101000a900467ffffffffffffffff1690506000808267ffffffffffffffff1614801561043b5750825b9050600060018367ffffffffffffffff16148015610470575060003073ffffffffffffffffffffffffffffffffffffffff163b145b90508115801561047e575080155b156104b5576040517ff92ee8a900000000000000000000000000000000000000000000000000000000815260040160405180910390fd5b60018560000160006101000a81548167ffffffffffffffff021916908367ffffffffffffffff16021790555083156105055760018560000160086101000a81548160ff0219169083151502179055505b61050e8661080a565b61051661081e565b83156105725760008560000160086101000a81548160ff0219169083151502179055507fc7f505b2f371ae2175ee4913f4499e1f2633a7b5936321eed1cdaeb6115181d260016040516105699190610db8565b60405180910390a15b505050505050565b610582610600565b600073ffffffffffffffffffffffffffffffffffffffff168173ffffffffffffffffffffffffffffffffffffffff16036105f45760006040517f1e4fbdf70000000000000000000000000000000000000000000000000000000081526004016105eb9190610a84565b60405180910390fd5b6105fd81610687565b50565b610608610830565b73ffffffffffffffffffffffffffffffffffffffff1661062661019f565b73ffffffffffffffffffffffffffffffffffffffff161461068557610649610830565b6040517f118cdaa700000000000000000000000000000000000000000000000000000000815260040161067c9190610a84565b60405180910390fd5b565b600061069161075e565b905060008160000160009054906101000a900473ffffffffffffffffffffffffffffffffffffffff169050828260000160006101000a81548173ffffffffffffffffffffffffffffffffffffffff021916908373ffffffffffffffffffffffffffffffffffffffff1602179055508273ffffffffffffffffffffffffffffffffffffffff168173ffffffffffffffffffffffffffffffffffffffff167f8be0079c531659141344cd1fd0a4f28419497f9722a3daafe3b4186f6b6457e060405160405180910390a3505050565b60007f9016d09d72d40fdae2fd8ceac6b6234c7706214fd39c1cd1e609a0528c199300905090565b6000610790610838565b905060028160000154036107d0576040517f3ee5aeb500000000000000000000000000000000000000000000000000000000815260040160405180910390fd5b6002816000018190555050565b60006107e7610838565b90506001816000018190555050565b600080610801610860565b90508091505090565b61081261088b565b61081b816108cb565b50565b61082661088b565b61082e610951565b565b600033905090565b60007f9b779b17422d0df92223018b32b4d1fa46e071723d6817e2486d003becc55f00905090565b60007ff0c57e16840df040f15088dc2f81fe391c3923bec73e23a9662efc9c229c6a0060001b905090565b610893610972565b6108c9576040517fd7e6bcf800000000000000000000000000000000000000000000000000000000815260040160405180910390fd5b565b6108d361088b565b600073ffffffffffffffffffffffffffffffffffffffff168173ffffffffffffffffffffffffffffffffffffffff16036109455760006040517f1e4fbdf700000000000000000000000000000000000000000000000000000000815260040161093c9190610a84565b60405180910390fd5b61094e81610687565b50565b61095961088b565b6000610963610838565b90506001816000018190555050565b600061097c6107f6565b60000160089054906101000a900460ff16905090565b600082825260208201905092915050565b7f496e76616c69642063616c6c0000000000000000000000000000000000000000600082015250565b60006109d9600c83610992565b91506109e4826109a3565b602082019050919050565b60006020820190508181036000830152610a08816109cc565b9050919050565b6000819050919050565b610a2281610a0f565b82525050565b6000602082019050610a3d6000830184610a19565b92915050565b600073ffffffffffffffffffffffffffffffffffffffff82169050919050565b6000610a6e82610a43565b9050919050565b610a7e81610a63565b82525050565b6000602082019050610a996000830184610a75565b92915050565b600080fd5b610aad81610a63565b8114610ab857600080fd5b50565b600081359050610aca81610aa4565b92915050565b610ad981610a0f565b8114610ae457600080fd5b50565b600081359050610af681610ad0565b92915050565b60008060408385031215610b1357610b12610a9f565b5b6000610b2185828601610abb565b9250506020610b3285828601610ae7565b9150509250929050565b600060208284031215610b5257610b51610a9f565b5b6000610b6084828501610abb565b91505092915050565b7f496e76616c696420746f00000000000000000000000000000000000000000000600082015250565b6000610b9f600a83610992565b9150610baa82610b69565b602082019050919050565b60006020820190508181036000830152610bce81610b92565b9050919050565b7f416d6f756e743d30000000000000000000000000000000000000000000000000600082015250565b6000610c0b600883610992565b9150610c1682610bd5565b602082019050919050565b60006020820190508181036000830152610c3a81610bfe565b9050919050565b7f496e73756666696369656e742062616c616e6365000000000000000000000000600082015250565b6000610c77601483610992565b9150610c8282610c41565b602082019050919050565b60006020820190508181036000830152610ca681610c6a565b9050919050565b600081905092915050565b50565b6000610cc8600083610cad565b9150610cd382610cb8565b600082019050919050565b6000610ce982610cbb565b9150819050919050565b7f4e6174697665207472616e73666572206661696c656400000000000000000000600082015250565b6000610d29601683610992565b9150610d3482610cf3565b602082019050919050565b60006020820190508181036000830152610d5881610d1c565b9050919050565b6000819050919050565b600067ffffffffffffffff82169050919050565b6000819050919050565b6000610da2610d9d610d9884610d5f565b610d7d565b610d69565b9050919050565b610db281610d87565b82525050565b6000602082019050610dcd6000830184610da9565b9291505056fea264697066735822122017a4690e175e7c9ae7d69a2de7445e06aad652034ee219dd0e9b48bba58397f764736f6c63430008140033",
  "linkReferences": {},
  "deployedLinkReferences": {}
}