{
  "_format": "hh-sol-artifact-1",
  "contractName": "VeryPoolCore",
  "sourceName": "contracts/VeryPoolCore.sol",
  "abi": [
    {
      "inputs": [],
      "name": "EnforcedPause",
      "type": "error"
    },
    {
      "inputs": [],
      "name": "ExpectedPause",
      "type": "error"
    },
    {
      "inputs": [],
      "name": "InvalidInitialization",
      "type": "error"
    },
    {
      "inputs": [],
      "name": "NotInitializing",
      "type": "error"
    },
    {
      "inputs": [
        {
          "internalType": "address",
          "name": "owner",
          "type": "address"
        }
      ],
      "name": "OwnableInvalidOwner",
      "type": "error"
    },
    {
      "inputs": [
        {
          "internalType": "address",
          "name": "account",
          "type": "address"
        }
      ],
      "name": "OwnableUnauthorizedAccount",
      "type": "error"
    },
    {
      "inputs": [],
      "name": "ReentrancyGuardReentrantCall",
      "type": "error"
    },
    {
      "anonymous": false,
      "inputs": [
        {
          "indexed": true,
          "internalType": "address",
          "name": "user",
          "type": "address"
        },
        {
          "indexed": false,
          "internalType": "uint256",
          "name": "amount",
          "type": "uint256"
        },
        {
          "indexed": false,
          "internalType": "uint256",
          "name": "timestamp",
          "type": "uint256"
        },
        {
          "indexed": false,
          "internalType": "uint256",
          "name": "tradeId",
          "type": "uint256"
        }
      ],
      "name": "Cancelled",
      "type": "event"
    },
    {
      "anonymous": false,
      "inputs": [
        {
          "indexed": true,
          "internalType": "address",
          "name": "user",
          "type": "address"
        },
        {
          "indexed": true,
          "internalType": "address",
          "name": "to",
          "type": "address"
        },
        {
          "indexed": false,
          "internalType": "uint256",
          "name": "amount",
          "type": "uint256"
        },
        {
          "indexed": false,
          "internalType": "uint256",
          "name": "timestamp",
          "type": "uint256"
        },
        {
          "indexed": false,
          "internalType": "uint256",
          "name": "tradeId",
          "type": "uint256"
        }
      ],
      "name": "Confirmed",
      "type": "event"
    },
    {
      "anonymous": false,
      "inputs": [
        {
          "indexed": true,
          "internalType": "address",
          "name": "user",
          "type": "address"
        },
        {
          "indexed": false,
          "internalType": "uint256",
          "name": "amount",
          "type": "uint256"
        },
        {
          "indexed": false,
          "internalType": "uint256",
          "name": "timestamp",
          "type": "uint256"
        },
        {
          "indexed": false,
          "internalType": "uint256",
          "name": "tradeId",
          "type": "uint256"
        }
      ],
      "name": "Deposited",
      "type": "event"
    },
    {
      "anonymous": false,
      "inputs": [
        {
          "indexed": false,
          "internalType": "uint64",
          "name": "version",
          "type": "uint64"
        }
      ],
      "name": "Initialized",
      "type": "event"
    },
    {
      "anonymous": false,
      "inputs": [
        {
          "indexed": true,
          "internalType": "address",
          "name": "previousOwner",
          "type": "address"
        },
        {
          "indexed": true,
          "internalType": "address",
          "name": "newOwner",
          "type": "address"
        }
      ],
      "name": "OwnershipTransferred",
      "type": "event"
    },
    {
      "anonymous": false,
      "inputs": [
        {
          "indexed": false,
          "internalType": "address",
          "name": "account",
          "type": "address"
        }
      ],
      "name": "Paused",
      "type": "event"
    },
    {
      "anonymous": false,
      "inputs": [
        {
          "indexed": false,
          "internalType": "address",
          "name": "account",
          "type": "address"
        }
      ],
      "name": "Unpaused",
      "type": "event"
    },
    {
      "stateMutability": "payable",
      "type": "fallback"
    },
    {
      "inputs": [
        {
          "internalType": "address",
          "name": "user",
          "type": "address"
        },
        {
          "internalType": "uint256",
          "name": "tradeId",
          "type": "uint256"
        }
      ],
      "name": "cancelTrade",
      "outputs": [],
      "stateMutability": "nonpayable",
      "type": "function"
    },
    {
      "inputs": [
        {
          "internalType": "address",
          "name": "user",
          "type": "address"
        },
        {
          "internalType": "uint256",
          "name": "tradeId",
          "type": "uint256"
        },
        {
          "internalType": "address",
          "name": "to",
          "type": "address"
        }
      ],
      "name": "confirmTrade",
      "outputs": [],
      "stateMutability": "nonpayable",
      "type": "function"
    },
    {
      "inputs": [],
      "name": "contractBalance",
      "outputs": [
        {
          "internalType": "uint256",
          "name": "",
          "type": "uint256"
        }
      ],
      "stateMutability": "view",
      "type": "function"
    },
    {
      "inputs": [
        {
          "internalType": "uint256",
          "name": "tradeId",
          "type": "uint256"
        },
        {
          "internalType": "uint256",
          "name": "tradeAmount",
          "type": "uint256"
        }
      ],
      "name": "deposit",
      "outputs": [],
      "stateMutability": "payable",
      "type": "function"
    },
    {
      "inputs": [
        {
          "internalType": "address",
          "name": "user",
          "type": "address"
        },
        {
          "internalType": "uint256",
          "name": "tradeId",
          "type": "uint256"
        }
      ],
      "name": "getTradeInfo",
      "outputs": [
        {
          "components": [
            {
              "internalType": "uint256",
              "name": "tradeId",
              "type": "uint256"
            },
            {
              "internalType": "uint256",
              "name": "depositAmount",
              "type": "uint256"
            },
            {
              "internalType": "uint256",
              "name": "tradeAmount",
              "type": "uint256"
            },
            {
              "internalType": "uint256",
              "name": "createdAt",
              "type": "uint256"
            },
            {
              "internalType": "uint256",
              "name": "updatedAt",
              "type": "uint256"
            },
            {
              "internalType": "address",
              "name": "from",
              "type": "address"
            },
            {
              "internalType": "address",
              "name": "to",
              "type": "address"
            },
            {
              "internalType": "bool",
              "name": "isCancelled",
              "type": "bool"
            },
            {
              "internalType": "bool",
              "name": "isCompleted",
              "type": "bool"
            }
          ],
          "internalType": "struct Trade",
          "name": "",
          "type": "tuple"
        }
      ],
      "stateMutability": "view",
      "type": "function"
    },
    {
      "inputs": [],
      "name": "getVeryPoolTreasury",
      "outputs": [
        {
          "internalType": "address",
          "name": "",
          "type": "address"
        }
      ],
      "stateMutability": "view",
      "type": "function"
    },
    {
      "inputs": [
        {
          "internalType": "address",
          "name": "_initialOwner",
          "type": "address"
        },
        {
          "internalType": "address",
          "name": "_veryPoolTreasury",
          "type": "address"
        }
      ],
      "name": "initialize",
      "outputs": [],
      "stateMutability": "nonpayable",
      "type": "function"
    },
    {
      "inputs": [],
      "name": "owner",
      "outputs": [
        {
          "internalType": "address",
          "name": "",
          "type": "address"
        }
      ],
      "stateMutability": "view",
      "type": "function"
    },
    {
      "inputs": [],
      "name": "pause",
      "outputs": [],
      "stateMutability": "nonpayable",
      "type": "function"
    },
    {
      "inputs": [],
      "name": "paused",
      "outputs": [
        {
          "internalType": "bool",
          "name": "",
          "type": "bool"
        }
      ],
      "stateMutability": "view",
      "type": "function"
    },
    {
      "inputs": [],
      "name": "renounceOwnership",
      "outputs": [],
      "stateMutability": "nonpayable",
      "type": "function"
    },
    {
      "inputs": [
        {
          "internalType": "address",
          "name": "_veryPoolTreasury",
          "type": "address"
        }
      ],
      "name": "setVeryPoolTreasury",
      "outputs": [],
      "stateMutability": "nonpayable",
      "type": "function"
    },
    {
      "inputs": [
        {
          "internalType": "address",
          "name": "",
          "type": "address"
        },
        {
          "internalType": "uint256",
          "name": "",
          "type": "uint256"
        }
      ],
      "name": "tradeLogs",
      "outputs": [
        {
          "internalType": "uint256",
          "name": "tradeId",
          "type": "uint256"
        },
        {
          "internalType": "uint256",
          "name": "depositAmount",
          "type": "uint256"
        },
        {
          "internalType": "uint256",
          "name": "tradeAmount",
          "type": "uint256"
        },
        {
          "internalType": "uint256",
          "name": "createdAt",
          "type": "uint256"
        },
        {
          "internalType": "uint256",
          "name": "updatedAt",
          "type": "uint256"
        },
        {
          "internalType": "address",
          "name": "from",
          "type": "address"
        },
        {
          "internalType": "address",
          "name": "to",
          "type": "address"
        },
        {
          "internalType": "bool",
          "name": "isCancelled",
          "type": "bool"
        },
        {
          "internalType": "bool",
          "name": "isCompleted",
          "type": "bool"
        }
      ],
      "stateMutability": "view",
      "type": "function"
    },
    {
      "inputs": [
        {
          "internalType": "address",
          "name": "newOwner",
          "type": "address"
        }
      ],
      "name": "transferOwnership",
      "outputs": [],
      "stateMutability": "nonpayable",
      "type": "function"
    },
    {
      "inputs": [],
      "name": "unpause",
      "outputs": [],
      "stateMutability": "nonpayable",
      "type": "function"
    },
    {
      "inputs": [],
      "name": "veryPoolTreasury",
      "outputs": [
        {
          "internalType": "address",
          "name": "",
          "type": "address"
        }
      ],
      "stateMutability": "view",
      "type": "function"
    },
    {
      "stateMutability": "payable",
      "type": "receive"
    }
  ],
  "bytecode": "0x608060405234801561001057600080fd5b50612ac2806100206000396000f3fe6080604052600436106100f75760003560e01c80637ab832551161008a57806391820ebe1161005957806391820ebe14610360578063de94acbe14610389578063e2bbb158146103b4578063f2fde38b146103d057610137565b80637ab83255146102b65780638456cb59146102f35780638b7afe2e1461030a5780638da5cb5b1461033557610137565b80634c5f58fa116100c65780634c5f58fa146102065780635c975abb1461024b578063715018a614610276578063759c4bf31461028d57610137565b806314f5a3bd146101725780631a46f4991461019b5780633f4ba83a146101c6578063485cc955146101dd57610137565b36610137576040517f08c379a000000000000000000000000000000000000000000000000000000000815260040161012e90611e34565b60405180910390fd5b6040517f08c379a000000000000000000000000000000000000000000000000000000000815260040161016990611ea0565b60405180910390fd5b34801561017e57600080fd5b5061019960048036038101906101949190611f23565b6103f9565b005b3480156101a757600080fd5b506101b06104b3565b6040516101bd9190611f5f565b60405180910390f35b3480156101d257600080fd5b506101db6104dc565b005b3480156101e957600080fd5b5061020460048036038101906101ff9190611f7a565b6104ee565b005b34801561021257600080fd5b5061022d60048036038101906102289190611ff0565b61073d565b6040516102429998979695949392919061205a565b60405180910390f35b34801561025757600080fd5b506102606107f2565b60405161026d91906120e7565b60405180910390f35b34801561028257600080fd5b5061028b610817565b005b34801561029957600080fd5b506102b460048036038101906102af9190611ff0565b61082b565b005b3480156102c257600080fd5b506102dd60048036038101906102d89190611ff0565b610c75565b6040516102ea91906121e6565b60405180910390f35b3480156102ff57600080fd5b50610308610df5565b005b34801561031657600080fd5b5061031f610e07565b60405161032c9190612202565b60405180910390f35b34801561034157600080fd5b5061034a610e0f565b6040516103579190611f5f565b60405180910390f35b34801561036c57600080fd5b506103876004803603810190610382919061221d565b610e47565b005b34801561039557600080fd5b5061039e611387565b6040516103ab9190611f5f565b60405180910390f35b6103ce60048036038101906103c99190612270565b6113ab565b005b3480156103dc57600080fd5b506103f760048036038101906103f29190611f23565b6117ac565b005b610401611832565b600073ffffffffffffffffffffffffffffffffffffffff168173ffffffffffffffffffffffffffffffffffffffff1603610470576040517f08c379a0000000000000000000000000000000000000000000000000000000008152600401610467906122fc565b60405180910390fd5b806000806101000a81548173ffffffffffffffffffffffffffffffffffffffff021916908373ffffffffffffffffffffffffffffffffffffffff16021790555050565b60008060009054906101000a900473ffffffffffffffffffffffffffffffffffffffff16905090565b6104e4611832565b6104ec6118b9565b565b60006104f861192b565b905060008160000160089054906101000a900460ff1615905060008260000160009054906101000a900467ffffffffffffffff1690506000808267ffffffffffffffff161480156105465750825b9050600060018367ffffffffffffffff1614801561057b575060003073ffffffffffffffffffffffffffffffffffffffff163b145b905081158015610589575080155b156105c0576040517ff92ee8a900000000000000000000000000000000000000000000000000000000815260040160405180910390fd5b60018560000160006101000a81548167ffffffffffffffff021916908367ffffffffffffffff16021790555083156106105760018560000160086101000a81548160ff0219169083151502179055505b6106198761193f565b610621611953565b61062961195d565b600073ffffffffffffffffffffffffffffffffffffffff168673ffffffffffffffffffffffffffffffffffffffff1603610698576040517f08c379a000000000000000000000000000000000000000000000000000000000815260040161068f906122fc565b60405180910390fd5b856000806101000a81548173ffffffffffffffffffffffffffffffffffffffff021916908373ffffffffffffffffffffffffffffffffffffffff16021790555083156107345760008560000160086101000a81548160ff0219169083151502179055507fc7f505b2f371ae2175ee4913f4499e1f2633a7b5936321eed1cdaeb6115181d2600160405161072b9190612375565b60405180910390a15b50505050505050565b6001602052816000526040600020602052806000526040600020600091509150508060000154908060010154908060020154908060030154908060040154908060050160009054906101000a900473ffffffffffffffffffffffffffffffffffffffff16908060060160009054906101000a900473ffffffffffffffffffffffffffffffffffffffff16908060060160149054906101000a900460ff16908060060160159054906101000a900460ff16905089565b6000806107fd61196f565b90508060000160009054906101000a900460ff1691505090565b61081f611832565b6108296000611997565b565b610833611832565b61083b611a6e565b6000810361087e576040517f08c379a0000000000000000000000000000000000000000000000000000000008152600401610875906123dc565b60405180910390fd5b6000600160008473ffffffffffffffffffffffffffffffffffffffff1673ffffffffffffffffffffffffffffffffffffffff168152602001908152602001600020600083815260200190815260200160002090506000816000015403610919576040517f08c379a000000000000000000000000000000000000000000000000000000000815260040161091090612448565b60405180910390fd5b8060060160149054906101000a900460ff161561096b576040517f08c379a0000000000000000000000000000000000000000000000000000000008152600401610962906124b4565b60405180910390fd5b8060060160159054906101000a900460ff16156109bd576040517f08c379a00000000000000000000000000000000000000000000000000000000081526004016109b490612520565b60405180910390fd5b6000816002015411610a04576040517f08c379a00000000000000000000000000000000000000000000000000000000081526004016109fb9061258c565b60405180910390fd5b806002015481600101541015610a4f576040517f08c379a0000000000000000000000000000000000000000000000000000000008152600401610a46906125f8565b60405180910390fd5b60008160020154905060018260060160146101000a81548160ff0219169083151502179055504282600401819055506000826002018190555060008473ffffffffffffffffffffffffffffffffffffffff1682604051610aae90612649565b60006040518083038185875af1925050503d8060008114610aeb576040519150601f19603f3d011682016040523d82523d6000602084013e610af0565b606091505b5050905080610b34576040517f08c379a0000000000000000000000000000000000000000000000000000000008152600401610b2b906126aa565b60405180910390fd5b60008360050160009054906101000a900473ffffffffffffffffffffffffffffffffffffffff1673ffffffffffffffffffffffffffffffffffffffff16838560010154610b8191906126f9565b604051610b8d90612649565b60006040518083038185875af1925050503d8060008114610bca576040519150601f19603f3d011682016040523d82523d6000602084013e610bcf565b606091505b5050905080610c13576040517f08c379a0000000000000000000000000000000000000000000000000000000008152600401610c0a906126aa565b60405180910390fd5b8573ffffffffffffffffffffffffffffffffffffffff167fa88851b97db599607079922fbc88c2fa5f0656531ba8c7cc67768dc45cb8dec8844288604051610c5d9392919061272d565b60405180910390a250505050610c71611ac5565b5050565b610c7d611d5b565b600160008473ffffffffffffffffffffffffffffffffffffffff1673ffffffffffffffffffffffffffffffffffffffff16815260200190815260200160002060008381526020019081526020016000206040518061012001604052908160008201548152602001600182015481526020016002820154815260200160038201548152602001600482015481526020016005820160009054906101000a900473ffffffffffffffffffffffffffffffffffffffff1673ffffffffffffffffffffffffffffffffffffffff1673ffffffffffffffffffffffffffffffffffffffff1681526020016006820160009054906101000a900473ffffffffffffffffffffffffffffffffffffffff1673ffffffffffffffffffffffffffffffffffffffff1673ffffffffffffffffffffffffffffffffffffffff1681526020016006820160149054906101000a900460ff161515151581526020016006820160159054906101000a900460ff161515151581525050905092915050565b610dfd611832565b610e05611ade565b565b600047905090565b600080610e1a611b50565b90508060000160009054906101000a900473ffffffffffffffffffffffffffffffffffffffff1691505090565b610e4f611832565b610e57611b78565b610e5f611a6e565b60008203610ea2576040517f08c379a0000000000000000000000000000000000000000000000000000000008152600401610e99906123dc565b60405180910390fd5b600073ffffffffffffffffffffffffffffffffffffffff168173ffffffffffffffffffffffffffffffffffffffff1603610f11576040517f08c379a0000000000000000000000000000000000000000000000000000000008152600401610f08906127b0565b60405180910390fd5b6000600160008573ffffffffffffffffffffffffffffffffffffffff1673ffffffffffffffffffffffffffffffffffffffff168152602001908152602001600020600084815260200190815260200160002090506000816000015403610fac576040517f08c379a0000000000000000000000000000000000000000000000000000000008152600401610fa390612448565b60405180910390fd5b8060060160149054906101000a900460ff1615610ffe576040517f08c379a0000000000000000000000000000000000000000000000000000000008152600401610ff59061281c565b60405180910390fd5b8060060160159054906101000a900460ff1615611050576040517f08c379a000000000000000000000000000000000000000000000000000000000815260040161104790612888565b60405180910390fd5b6000816002015411611097576040517f08c379a000000000000000000000000000000000000000000000000000000000815260040161108e9061258c565b60405180910390fd5b8060020154816001015410156110e2576040517f08c379a00000000000000000000000000000000000000000000000000000000081526004016110d9906125f8565b60405180910390fd5b600081600201549050828260060160006101000a81548173ffffffffffffffffffffffffffffffffffffffff021916908373ffffffffffffffffffffffffffffffffffffffff1602179055506000826002018190555060018260060160156101000a81548160ff02191690831515021790555042826004018190555060008260060160009054906101000a900473ffffffffffffffffffffffffffffffffffffffff1673ffffffffffffffffffffffffffffffffffffffff16826040516111a890612649565b60006040518083038185875af1925050503d80600081146111e5576040519150601f19603f3d011682016040523d82523d6000602084013e6111ea565b606091505b505090508061122e576040517f08c379a0000000000000000000000000000000000000000000000000000000008152600401611225906128f4565b60405180910390fd5b60008360050160009054906101000a900473ffffffffffffffffffffffffffffffffffffffff1673ffffffffffffffffffffffffffffffffffffffff1683856001015461127b91906126f9565b60405161128790612649565b60006040518083038185875af1925050503d80600081146112c4576040519150601f19603f3d011682016040523d82523d6000602084013e6112c9565b606091505b505090508061130d576040517f08c379a0000000000000000000000000000000000000000000000000000000008152600401611304906126aa565b60405180910390fd5b8473ffffffffffffffffffffffffffffffffffffffff168773ffffffffffffffffffffffffffffffffffffffff167fe8e44cece76df3171d4c53c6a97db68bcc40e6b4a5adb03cc35c2d47e8c7773985428a60405161136e9392919061272d565b60405180910390a350505050611382611ac5565b505050565b60008054906101000a900473ffffffffffffffffffffffffffffffffffffffff1681565b6113b3611b78565b6113bb611a6e565b600082036113fe576040517f08c379a00000000000000000000000000000000000000000000000000000000081526004016113f5906123dc565b60405180910390fd5b60003411611441576040517f08c379a000000000000000000000000000000000000000000000000000000000815260040161143890612960565b60405180910390fd5b80341015611484576040517f08c379a000000000000000000000000000000000000000000000000000000000815260040161147b906129cc565b60405180910390fd5b6000600160003373ffffffffffffffffffffffffffffffffffffffff1673ffffffffffffffffffffffffffffffffffffffff1681526020019081526020016000206000848152602001908152602001600020905060008160000154036115d757828160000181905550338160050160006101000a81548173ffffffffffffffffffffffffffffffffffffffff021916908373ffffffffffffffffffffffffffffffffffffffff16021790555060008160060160006101000a81548173ffffffffffffffffffffffffffffffffffffffff021916908373ffffffffffffffffffffffffffffffffffffffff16021790555034816001018190555081816002018190555042816003018190555042816004018190555060008160060160146101000a81548160ff02191690831515021790555060008160060160156101000a81548160ff02191690831515021790555061174d565b8060060160149054906101000a900460ff1615611629576040517f08c379a00000000000000000000000000000000000000000000000000000000081526004016116209061281c565b60405180910390fd5b8060060160159054906101000a900460ff161561167b576040517f08c379a000000000000000000000000000000000000000000000000000000000815260040161167290612888565b60405180910390fd5b3373ffffffffffffffffffffffffffffffffffffffff168160050160009054906101000a900473ffffffffffffffffffffffffffffffffffffffff1673ffffffffffffffffffffffffffffffffffffffff161461170d576040517f08c379a000000000000000000000000000000000000000000000000000000000815260040161170490612a38565b60405180910390fd5b348160010160008282546117219190612a58565b925050819055508181600201600082825461173c9190612a58565b925050819055504281600401819055505b3373ffffffffffffffffffffffffffffffffffffffff167f91ede45f04a37a7c170f5c1207df3b6bc748dc1e04ad5e917a241d0f52feada33442866040516117979392919061272d565b60405180910390a2506117a8611ac5565b5050565b6117b4611832565b600073ffffffffffffffffffffffffffffffffffffffff168173ffffffffffffffffffffffffffffffffffffffff16036118265760006040517f1e4fbdf700000000000000000000000000000000000000000000000000000000815260040161181d9190611f5f565b60405180910390fd5b61182f81611997565b50565b61183a611bb9565b73ffffffffffffffffffffffffffffffffffffffff16611858610e0f565b73ffffffffffffffffffffffffffffffffffffffff16146118b75761187b611bb9565b6040517f118cdaa70000000000000000000000000000000000000000000000000000000081526004016118ae9190611f5f565b60405180910390fd5b565b6118c1611bc1565b60006118cb61196f565b905060008160000160006101000a81548160ff0219169083151502179055507f5db9ee0a495bf2e6ff9c91a7834c1ba4fdd244a5e8aa4e537bd38aeae4b073aa611913611bb9565b6040516119209190611f5f565b60405180910390a150565b600080611936611c01565b90508091505090565b611947611c2c565b61195081611c6c565b50565b61195b611c2c565b565b611965611c2c565b61196d611cf2565b565b60007fcd5ed15c6e187e77e9aee88184c21f4f2182ab5827cb3b7e07fbedcd63f03300905090565b60006119a1611b50565b905060008160000160009054906101000a900473ffffffffffffffffffffffffffffffffffffffff169050828260000160006101000a81548173ffffffffffffffffffffffffffffffffffffffff021916908373ffffffffffffffffffffffffffffffffffffffff1602179055508273ffffffffffffffffffffffffffffffffffffffff168173ffffffffffffffffffffffffffffffffffffffff167f8be0079c531659141344cd1fd0a4f28419497f9722a3daafe3b4186f6b6457e060405160405180910390a3505050565b6000611a78611d13565b90506002816000015403611ab8576040517f3ee5aeb500000000000000000000000000000000000000000000000000000000815260040160405180910390fd5b6002816000018190555050565b6000611acf611d13565b90506001816000018190555050565b611ae6611b78565b6000611af061196f565b905060018160000160006101000a81548160ff0219169083151502179055507f62e78cea01bee320cd4e420270b5ea74000d11b0c9f74754ebdbfc544b05a258611b38611bb9565b604051611b459190611f5f565b60405180910390a150565b60007f9016d09d72d40fdae2fd8ceac6b6234c7706214fd39c1cd1e609a0528c199300905090565b611b806107f2565b15611bb7576040517fd93c066500000000000000000000000000000000000000000000000000000000815260040160405180910390fd5b565b600033905090565b611bc96107f2565b611bff576040517f8dfc202b00000000000000000000000000000000000000000000000000000000815260040160405180910390fd5b565b60007ff0c57e16840df040f15088dc2f81fe391c3923bec73e23a9662efc9c229c6a0060001b905090565b611c34611d3b565b611c6a576040517fd7e6bcf800000000000000000000000000000000000000000000000000000000815260040160405180910390fd5b565b611c74611c2c565b600073ffffffffffffffffffffffffffffffffffffffff168173ffffffffffffffffffffffffffffffffffffffff1603611ce65760006040517f1e4fbdf7000000000000000000000000000000000000000000000000000000008152600401611cdd9190611f5f565b60405180910390fd5b611cef81611997565b50565b611cfa611c2c565b6000611d04611d13565b90506001816000018190555050565b60007f9b779b17422d0df92223018b32b4d1fa46e071723d6817e2486d003becc55f00905090565b6000611d4561192b565b60000160089054906101000a900460ff16905090565b6040518061012001604052806000815260200160008152602001600081526020016000815260200160008152602001600073ffffffffffffffffffffffffffffffffffffffff168152602001600073ffffffffffffffffffffffffffffffffffffffff1681526020016000151581526020016000151581525090565b600082825260208201905092915050565b7f557365206465706f736974282900000000000000000000000000000000000000600082015250565b6000611e1e600d83611dd7565b9150611e2982611de8565b602082019050919050565b60006020820190508181036000830152611e4d81611e11565b9050919050565b7f496e76616c69642063616c6c0000000000000000000000000000000000000000600082015250565b6000611e8a600c83611dd7565b9150611e9582611e54565b602082019050919050565b60006020820190508181036000830152611eb981611e7d565b9050919050565b600080fd5b600073ffffffffffffffffffffffffffffffffffffffff82169050919050565b6000611ef082611ec5565b9050919050565b611f0081611ee5565b8114611f0b57600080fd5b50565b600081359050611f1d81611ef7565b92915050565b600060208284031215611f3957611f38611ec0565b5b6000611f4784828501611f0e565b91505092915050565b611f5981611ee5565b82525050565b6000602082019050611f746000830184611f50565b92915050565b60008060408385031215611f9157611f90611ec0565b5b6000611f9f85828601611f0e565b9250506020611fb085828601611f0e565b9150509250929050565b6000819050919050565b611fcd81611fba565b8114611fd857600080fd5b50565b600081359050611fea81611fc4565b92915050565b6000806040838503121561200757612006611ec0565b5b600061201585828601611f0e565b925050602061202685828601611fdb565b9150509250929050565b61203981611fba565b82525050565b60008115159050919050565b6120548161203f565b82525050565b600061012082019050612070600083018c612030565b61207d602083018b612030565b61208a604083018a612030565b6120976060830189612030565b6120a46080830188612030565b6120b160a0830187611f50565b6120be60c0830186611f50565b6120cb60e083018561204b565b6120d961010083018461204b565b9a9950505050505050505050565b60006020820190506120fc600083018461204b565b92915050565b61210b81611fba565b82525050565b61211a81611ee5565b82525050565b6121298161203f565b82525050565b610120820160008201516121466000850182612102565b5060208201516121596020850182612102565b50604082015161216c6040850182612102565b50606082015161217f6060850182612102565b5060808201516121926080850182612102565b5060a08201516121a560a0850182612111565b5060c08201516121b860c0850182612111565b5060e08201516121cb60e0850182612120565b506101008201516121e0610100850182612120565b50505050565b6000610120820190506121fc600083018461212f565b92915050565b60006020820190506122176000830184612030565b92915050565b60008060006060848603121561223657612235611ec0565b5b600061224486828701611f0e565b935050602061225586828701611fdb565b925050604061226686828701611f0e565b9150509250925092565b6000806040838503121561228757612286611ec0565b5b600061229585828601611fdb565b92505060206122a685828601611fdb565b9150509250929050565b7f496e76616c696420747265617375727920616464726573730000000000000000600082015250565b60006122e6601883611dd7565b91506122f1826122b0565b602082019050919050565b60006020820190508181036000830152612315816122d9565b9050919050565b6000819050919050565b600067ffffffffffffffff82169050919050565b6000819050919050565b600061235f61235a6123558461231c565b61233a565b612326565b9050919050565b61236f81612344565b82525050565b600060208201905061238a6000830184612366565b92915050565b7f496e76616c696420747261646549640000000000000000000000000000000000600082015250565b60006123c6600f83611dd7565b91506123d182612390565b602082019050919050565b600060208201905081810360008301526123f5816123b9565b9050919050565b7f5472616465206e6f7420666f756e640000000000000000000000000000000000600082015250565b6000612432600f83611dd7565b915061243d826123fc565b602082019050919050565b6000602082019050818103600083015261246181612425565b9050919050565b7f416c72656164792063616e63656c6c6564000000000000000000000000000000600082015250565b600061249e601183611dd7565b91506124a982612468565b602082019050919050565b600060208201905081810360008301526124cd81612491565b9050919050565b7f416c726561647920636f6d706c65746564000000000000000000000000000000600082015250565b600061250a601183611dd7565b9150612515826124d4565b602082019050919050565b60006020820190508181036000830152612539816124fd565b9050919050565b7f4e6f20657363726f770000000000000000000000000000000000000000000000600082015250565b6000612576600983611dd7565b915061258182612540565b602082019050919050565b600060208201905081810360008301526125a581612569565b9050919050565b7f496e73756666696369656e74206465706f736974000000000000000000000000600082015250565b60006125e2601483611dd7565b91506125ed826125ac565b602082019050919050565b60006020820190508181036000830152612611816125d5565b9050919050565b600081905092915050565b50565b6000612633600083612618565b915061263e82612623565b600082019050919050565b600061265482612626565b9150819050919050565b7f526566756e64206661696c656400000000000000000000000000000000000000600082015250565b6000612694600d83611dd7565b915061269f8261265e565b602082019050919050565b600060208201905081810360008301526126c381612687565b9050919050565b7f4e487b7100000000000000000000000000000000000000000000000000000000600052601160045260246000fd5b600061270482611fba565b915061270f83611fba565b9250828203905081811115612727576127266126ca565b5b92915050565b60006060820190506127426000830186612030565b61274f6020830185612030565b61275c6040830184612030565b949350505050565b7f496e76616c696420746f00000000000000000000000000000000000000000000600082015250565b600061279a600a83611dd7565b91506127a582612764565b602082019050919050565b600060208201905081810360008301526127c98161278d565b9050919050565b7f54726164652063616e63656c6c65640000000000000000000000000000000000600082015250565b6000612806600f83611dd7565b9150612811826127d0565b602082019050919050565b60006020820190508181036000830152612835816127f9565b9050919050565b7f547261646520636f6d706c657465640000000000000000000000000000000000600082015250565b6000612872600f83611dd7565b915061287d8261283c565b602082019050919050565b600060208201905081810360008301526128a181612865565b9050919050565b7f52656c65617365206661696c6564000000000000000000000000000000000000600082015250565b60006128de600e83611dd7565b91506128e9826128a8565b602082019050919050565b6000602082019050818103600083015261290d816128d1565b9050919050565b7f4d7573742073656e64206e617469766500000000000000000000000000000000600082015250565b600061294a601083611dd7565b915061295582612914565b602082019050919050565b600060208201905081810360008301526129798161293d565b9050919050565b7f496e73756666696369656e7420616d6f756e7400000000000000000000000000600082015250565b60006129b6601383611dd7565b91506129c182612980565b602082019050919050565b600060208201905081810360008301526129e5816129a9565b9050919050565b7f4e6f74207472616465206f776e65720000000000000000000000000000000000600082015250565b6000612a22600f83611dd7565b9150612a2d826129ec565b602082019050919050565b60006020820190508181036000830152612a5181612a15565b9050919050565b6000612a6382611fba565b9150612a6e83611fba565b9250828201905080821115612a8657612a856126ca565b5b9291505056fea2646970667358221220d06fa1745b2917c6b2a974fe01add7f07760c7e56b49fb5371d52cd130da62d264736f6c63430008140033",
  "linkReferences": {},
  "deployedLinkReferences": {}
}